{
  "contractName": "Project365Space",
  "abi": [
    {
      "inputs": [
        {
          "internalType": "string",
          "name": "_initBaseURI",
          "type": "string"
        }
      ],
      "stateMutability": "nonpayable",
      "type": "constructor"
    },
    {
      "anonymous": false,
      "inputs": [
        {
          "indexed": true,
          "internalType": "address",
          "name": "owner",
          "type": "address"
        },
        {
          "indexed": true,
          "internalType": "address",
          "name": "approved",
          "type": "address"
        },
        {
          "indexed": true,
          "internalType": "uint256",
          "name": "tokenId",
          "type": "uint256"
        }
      ],
      "name": "Approval",
      "type": "event"
    },
    {
      "anonymous": false,
      "inputs": [
        {
          "indexed": true,
          "internalType": "address",
          "name": "owner",
          "type": "address"
        },
        {
          "indexed": true,
          "internalType": "address",
          "name": "operator",
          "type": "address"
        },
        {
          "indexed": false,
          "internalType": "bool",
          "name": "approved",
          "type": "bool"
        }
      ],
      "name": "ApprovalForAll",
      "type": "event"
    },
    {
      "anonymous": false,
      "inputs": [
        {
          "indexed": true,
          "internalType": "address",
          "name": "previousOwner",
          "type": "address"
        },
        {
          "indexed": true,
          "internalType": "address",
          "name": "newOwner",
          "type": "address"
        }
      ],
      "name": "OwnershipTransferred",
      "type": "event"
    },
    {
      "anonymous": false,
      "inputs": [
        {
          "indexed": true,
          "internalType": "address",
          "name": "from",
          "type": "address"
        },
        {
          "indexed": true,
          "internalType": "address",
          "name": "to",
          "type": "address"
        },
        {
          "indexed": true,
          "internalType": "uint256",
          "name": "tokenId",
          "type": "uint256"
        }
      ],
      "name": "Transfer",
      "type": "event"
    },
    {
      "inputs": [
        {
          "internalType": "address",
          "name": "to",
          "type": "address"
        },
        {
          "internalType": "uint256",
          "name": "tokenId",
          "type": "uint256"
        }
      ],
      "name": "approve",
      "outputs": [],
      "stateMutability": "nonpayable",
      "type": "function"
    },
    {
      "inputs": [
        {
          "internalType": "address",
          "name": "owner",
          "type": "address"
        }
      ],
      "name": "balanceOf",
      "outputs": [
        {
          "internalType": "uint256",
          "name": "",
          "type": "uint256"
        }
      ],
      "stateMutability": "view",
      "type": "function"
    },
    {
      "inputs": [],
      "name": "baseExtension",
      "outputs": [
        {
          "internalType": "string",
          "name": "",
          "type": "string"
        }
      ],
      "stateMutability": "view",
      "type": "function"
    },
    {
      "inputs": [],
      "name": "baseURI",
      "outputs": [
        {
          "internalType": "string",
          "name": "",
          "type": "string"
        }
      ],
      "stateMutability": "view",
      "type": "function"
    },
    {
      "inputs": [],
      "name": "cost",
      "outputs": [
        {
          "internalType": "uint256",
          "name": "",
          "type": "uint256"
        }
      ],
      "stateMutability": "view",
      "type": "function"
    },
    {
      "inputs": [
        {
          "internalType": "uint256",
          "name": "tokenId",
          "type": "uint256"
        }
      ],
      "name": "getApproved",
      "outputs": [
        {
          "internalType": "address",
          "name": "",
          "type": "address"
        }
      ],
      "stateMutability": "view",
      "type": "function"
    },
    {
      "inputs": [
        {
          "internalType": "address",
          "name": "owner",
          "type": "address"
        },
        {
          "internalType": "address",
          "name": "operator",
          "type": "address"
        }
      ],
      "name": "isApprovedForAll",
      "outputs": [
        {
          "internalType": "bool",
          "name": "",
          "type": "bool"
        }
      ],
      "stateMutability": "view",
      "type": "function"
    },
    {
      "inputs": [],
      "name": "isSaleActive",
      "outputs": [
        {
          "internalType": "bool",
          "name": "",
          "type": "bool"
        }
      ],
      "stateMutability": "view",
      "type": "function"
    },
    {
      "inputs": [],
      "name": "maxMintAmount",
      "outputs": [
        {
          "internalType": "uint256",
          "name": "",
          "type": "uint256"
        }
      ],
      "stateMutability": "view",
      "type": "function"
    },
    {
      "inputs": [],
      "name": "maxSupply",
      "outputs": [
        {
          "internalType": "uint256",
          "name": "",
          "type": "uint256"
        }
      ],
      "stateMutability": "view",
      "type": "function"
    },
    {
      "inputs": [],
      "name": "name",
      "outputs": [
        {
          "internalType": "string",
          "name": "",
          "type": "string"
        }
      ],
      "stateMutability": "view",
      "type": "function"
    },
    {
      "inputs": [],
      "name": "owner",
      "outputs": [
        {
          "internalType": "address",
          "name": "",
          "type": "address"
        }
      ],
      "stateMutability": "view",
      "type": "function"
    },
    {
      "inputs": [
        {
          "internalType": "uint256",
          "name": "tokenId",
          "type": "uint256"
        }
      ],
      "name": "ownerOf",
      "outputs": [
        {
          "internalType": "address",
          "name": "",
          "type": "address"
        }
      ],
      "stateMutability": "view",
      "type": "function"
    },
    {
      "inputs": [],
      "name": "paused",
      "outputs": [
        {
          "internalType": "bool",
          "name": "",
          "type": "bool"
        }
      ],
      "stateMutability": "view",
      "type": "function"
    },
    {
      "inputs": [],
      "name": "renounceOwnership",
      "outputs": [],
      "stateMutability": "nonpayable",
      "type": "function"
    },
    {
      "inputs": [
        {
          "internalType": "address",
          "name": "from",
          "type": "address"
        },
        {
          "internalType": "address",
          "name": "to",
          "type": "address"
        },
        {
          "internalType": "uint256",
          "name": "tokenId",
          "type": "uint256"
        }
      ],
      "name": "safeTransferFrom",
      "outputs": [],
      "stateMutability": "nonpayable",
      "type": "function"
    },
    {
      "inputs": [
        {
          "internalType": "address",
          "name": "from",
          "type": "address"
        },
        {
          "internalType": "address",
          "name": "to",
          "type": "address"
        },
        {
          "internalType": "uint256",
          "name": "tokenId",
          "type": "uint256"
        },
        {
          "internalType": "bytes",
          "name": "_data",
          "type": "bytes"
        }
      ],
      "name": "safeTransferFrom",
      "outputs": [],
      "stateMutability": "nonpayable",
      "type": "function"
    },
    {
      "inputs": [
        {
          "internalType": "address",
          "name": "operator",
          "type": "address"
        },
        {
          "internalType": "bool",
          "name": "approved",
          "type": "bool"
        }
      ],
      "name": "setApprovalForAll",
      "outputs": [],
      "stateMutability": "nonpayable",
      "type": "function"
    },
    {
      "inputs": [
        {
          "internalType": "bytes4",
          "name": "interfaceId",
          "type": "bytes4"
        }
      ],
      "name": "supportsInterface",
      "outputs": [
        {
          "internalType": "bool",
          "name": "",
          "type": "bool"
        }
      ],
      "stateMutability": "view",
      "type": "function"
    },
    {
      "inputs": [],
      "name": "symbol",
      "outputs": [
        {
          "internalType": "string",
          "name": "",
          "type": "string"
        }
      ],
      "stateMutability": "view",
      "type": "function"
    },
    {
      "inputs": [
        {
          "internalType": "uint256",
          "name": "index",
          "type": "uint256"
        }
      ],
      "name": "tokenByIndex",
      "outputs": [
        {
          "internalType": "uint256",
          "name": "",
          "type": "uint256"
        }
      ],
      "stateMutability": "view",
      "type": "function"
    },
    {
      "inputs": [
        {
          "internalType": "address",
          "name": "owner",
          "type": "address"
        },
        {
          "internalType": "uint256",
          "name": "index",
          "type": "uint256"
        }
      ],
      "name": "tokenOfOwnerByIndex",
      "outputs": [
        {
          "internalType": "uint256",
          "name": "",
          "type": "uint256"
        }
      ],
      "stateMutability": "view",
      "type": "function"
    },
    {
      "inputs": [],
      "name": "totalSupply",
      "outputs": [
        {
          "internalType": "uint256",
          "name": "",
          "type": "uint256"
        }
      ],
      "stateMutability": "view",
      "type": "function"
    },
    {
      "inputs": [
        {
          "internalType": "address",
          "name": "from",
          "type": "address"
        },
        {
          "internalType": "address",
          "name": "to",
          "type": "address"
        },
        {
          "internalType": "uint256",
          "name": "tokenId",
          "type": "uint256"
        }
      ],
      "name": "transferFrom",
      "outputs": [],
      "stateMutability": "nonpayable",
      "type": "function"
    },
    {
      "inputs": [
        {
          "internalType": "address",
          "name": "newOwner",
          "type": "address"
        }
      ],
      "name": "transferOwnership",
      "outputs": [],
      "stateMutability": "nonpayable",
      "type": "function"
    },
    {
      "inputs": [
        {
          "internalType": "address",
          "name": "_to",
          "type": "address"
        },
        {
          "internalType": "uint256",
          "name": "_mintAmount",
          "type": "uint256"
        }
      ],
      "name": "mint",
      "outputs": [],
      "stateMutability": "payable",
      "type": "function"
    },
    {
      "inputs": [
        {
          "internalType": "address",
          "name": "_account",
          "type": "address"
        }
      ],
      "name": "walletOfOwner",
      "outputs": [
        {
          "internalType": "uint256[]",
          "name": "",
          "type": "uint256[]"
        }
      ],
      "stateMutability": "view",
      "type": "function"
    },
    {
      "inputs": [
        {
          "internalType": "uint256",
          "name": "tokenId",
          "type": "uint256"
        }
      ],
      "name": "tokenURI",
      "outputs": [
        {
          "internalType": "string",
          "name": "",
          "type": "string"
        }
      ],
      "stateMutability": "view",
      "type": "function"
    },
    {
      "inputs": [
        {
          "internalType": "uint256",
          "name": "_newCost",
          "type": "uint256"
        }
      ],
      "name": "setCost",
      "outputs": [],
      "stateMutability": "nonpayable",
      "type": "function"
    },
    {
      "inputs": [
        {
          "internalType": "uint256",
          "name": "_newmaxMintAmount",
          "type": "uint256"
        }
      ],
      "name": "setmaxMintAmount",
      "outputs": [],
      "stateMutability": "nonpayable",
      "type": "function"
    },
    {
      "inputs": [
        {
          "internalType": "string",
          "name": "_newBaseURI",
          "type": "string"
        }
      ],
      "name": "setBaseURI",
      "outputs": [],
      "stateMutability": "nonpayable",
      "type": "function"
    },
    {
      "inputs": [
        {
          "internalType": "string",
          "name": "_newBaseExtension",
          "type": "string"
        }
      ],
      "name": "setBaseExtension",
      "outputs": [],
      "stateMutability": "nonpayable",
      "type": "function"
    },
    {
      "inputs": [
        {
          "internalType": "bool",
          "name": "_state",
          "type": "bool"
        }
      ],
      "name": "pause",
      "outputs": [],
      "stateMutability": "nonpayable",
      "type": "function"
    },
    {
      "inputs": [
        {
          "internalType": "bool",
          "name": "_state",
          "type": "bool"
        }
      ],
      "name": "setIsSaleActive",
      "outputs": [],
      "stateMutability": "nonpayable",
      "type": "function"
    },
    {
      "inputs": [],
      "name": "withdraw",
      "outputs": [],
      "stateMutability": "payable",
      "type": "function"
    }
  ],
  "bytecode": "0x60c06040526005608081905264173539b7b760d91b60a09081526200002891600d9190620001e3565b5067016345785d8a0000600e556113f6600f5560146010556011805461ffff191690553480156200005857600080fd5b5060405162002b4a38038062002b4a8339810160408190526200007b9162000289565b60408051808201825260118152700ccd8d4814dc1858d948141c9bda9958dd607a1b602080830191825283518085019094526005845264535041434560d81b908401528151919291620000d191600091620001e3565b508051620000e7906001906020840190620001e3565b50505062000104620000fe6200011660201b60201c565b6200011a565b6200010f816200016c565b50620003e0565b3390565b600a80546001600160a01b038381166001600160a01b0319831681179093556040519116919082907f8be0079c531659141344cd1fd0a4f28419497f9722a3daafe3b4186f6b6457e090600090a35050565b6200017662000116565b6001600160a01b031662000189620001d4565b6001600160a01b031614620001bb5760405162461bcd60e51b8152600401620001b29062000358565b60405180910390fd5b8051620001d090600c906020840190620001e3565b5050565b600a546001600160a01b031690565b828054620001f1906200038d565b90600052602060002090601f01602090048101928262000215576000855562000260565b82601f106200023057805160ff191683800117855562000260565b8280016001018555821562000260579182015b828111156200026057825182559160200191906001019062000243565b506200026e92915062000272565b5090565b5b808211156200026e576000815560010162000273565b600060208083850312156200029c578182fd5b82516001600160401b0380821115620002b3578384fd5b818501915085601f830112620002c7578384fd5b815181811115620002dc57620002dc620003ca565b604051601f8201601f1916810185018381118282101715620003025762000302620003ca565b604052818152838201850188101562000319578586fd5b8592505b818310156200033c57838301850151818401860152918401916200031d565b818311156200034d57858583830101525b979650505050505050565b6020808252818101527f4f776e61626c653a2063616c6c6572206973206e6f7420746865206f776e6572604082015260600190565b600281046001821680620003a257607f821691505b60208210811415620003c457634e487b7160e01b600052602260045260246000fd5b50919050565b634e487b7160e01b600052604160045260246000fd5b61275a80620003f06000396000f3fe6080604052600436106102045760003560e01c8063564566a811610118578063a22cb465116100a0578063d2d65ff51161006f578063d2d65ff514610577578063d5abeb0114610597578063da3ef23f146105ac578063e985e9c5146105cc578063f2fde38b146105ec57610204565b8063a22cb46514610502578063b88d4fde14610522578063c668286214610542578063c87b56dd1461055757610204565b806370a08231116100e757806370a0823114610483578063715018a6146104a35780637f00c7a6146104b85780638da5cb5b146104d857806395d89b41146104ed57610204565b8063564566a8146104245780635c975abb146104395780636352211e1461044e5780636c0360eb1461046e57610204565b806323b872dd1161019b57806342842e0e1161016a57806342842e0e14610377578063438b63001461039757806344a0d68a146103c45780634f6ccce7146103e457806355f804b31461040457610204565b806323b872dd1461031c5780632f745c591461033c5780633ccfd60b1461035c57806340c10f191461036457610204565b8063095ea7b3116101d7578063095ea7b3146102b057806313faede6146102d057806318160ddd146102f2578063239c70ae1461030757610204565b806301ffc9a71461020957806302329a291461023f57806306fdde0314610261578063081812fc14610283575b600080fd5b34801561021557600080fd5b50610229610224366004611cf1565b61060c565b6040516102369190611f0a565b60405180910390f35b34801561024b57600080fd5b5061025f61025a366004611cd7565b610639565b005b34801561026d57600080fd5b50610276610694565b6040516102369190611f15565b34801561028f57600080fd5b506102a361029e366004611d6f565b610726565b6040516102369190611e75565b3480156102bc57600080fd5b5061025f6102cb366004611cae565b610769565b3480156102dc57600080fd5b506102e5610801565b60405161023691906125bf565b3480156102fe57600080fd5b506102e5610807565b34801561031357600080fd5b506102e561080d565b34801561032857600080fd5b5061025f610337366004611bd1565b610813565b34801561034857600080fd5b506102e5610357366004611cae565b61084b565b61025f61089d565b61025f610372366004611cae565b610902565b34801561038357600080fd5b5061025f610392366004611bd1565b610a64565b3480156103a357600080fd5b506103b76103b2366004611b85565b610a7f565b6040516102369190611ec6565b3480156103d057600080fd5b5061025f6103df366004611d6f565b610b3d565b3480156103f057600080fd5b506102e56103ff366004611d6f565b610b81565b34801561041057600080fd5b5061025f61041f366004611d29565b610bdc565b34801561043057600080fd5b50610229610c32565b34801561044557600080fd5b50610229610c40565b34801561045a57600080fd5b506102a3610469366004611d6f565b610c49565b34801561047a57600080fd5b50610276610c7e565b34801561048f57600080fd5b506102e561049e366004611b85565b610d0c565b3480156104af57600080fd5b5061025f610d50565b3480156104c457600080fd5b5061025f6104d3366004611d6f565b610d99565b3480156104e457600080fd5b506102a3610ddd565b3480156104f957600080fd5b50610276610dec565b34801561050e57600080fd5b5061025f61051d366004611c85565b610dfb565b34801561052e57600080fd5b5061025f61053d366004611c0c565b610ec9565b34801561054e57600080fd5b50610276610f02565b34801561056357600080fd5b50610276610572366004611d6f565b610f0f565b34801561058357600080fd5b5061025f610592366004611cd7565b610f95565b3480156105a357600080fd5b506102e5610fee565b3480156105b857600080fd5b5061025f6105c7366004611d29565b610ff4565b3480156105d857600080fd5b506102296105e7366004611b9f565b611046565b3480156105f857600080fd5b5061025f610607366004611b85565b611074565b60006001600160e01b0319821663780e9d6360e01b14806106315750610631826110e5565b90505b919050565b610641611125565b6001600160a01b0316610652610ddd565b6001600160a01b0316146106815760405162461bcd60e51b8152600401610678906123bc565b60405180910390fd5b6011805460ff1916911515919091179055565b6060600080546106a390612662565b80601f01602080910402602001604051908101604052809291908181526020018280546106cf90612662565b801561071c5780601f106106f15761010080835404028352916020019161071c565b820191906000526020600020905b8154815290600101906020018083116106ff57829003601f168201915b5050505050905090565b600061073182611129565b61074d5760405162461bcd60e51b815260040161067890612370565b506000908152600460205260409020546001600160a01b031690565b600061077482610c49565b9050806001600160a01b0316836001600160a01b031614156107a85760405162461bcd60e51b815260040161067890612489565b806001600160a01b03166107ba611125565b6001600160a01b031614806107d657506107d6816105e7611125565b6107f25760405162461bcd60e51b81526004016106789061224b565b6107fc8383611146565b505050565b600e5481565b60085490565b60105481565b61082461081e611125565b826111b4565b6108405760405162461bcd60e51b8152600401610678906124f8565b6107fc838383611239565b600061085683610d0c565b82106108745760405162461bcd60e51b815260040161067890611f73565b506001600160a01b03919091166000908152600660209081526040808320938352929052205490565b6108a5611125565b6001600160a01b03166108b6610ddd565b6001600160a01b0316146108dc5760405162461bcd60e51b8152600401610678906123bc565b60405133904780156108fc02916000818181858888f1935050505061090057600080fd5b565b600061090c610807565b60115490915060ff16156109325760405162461bcd60e51b81526004016106789061214c565b6001600160a01b0383166109585760405162461bcd60e51b815260040161067890612176565b6000821161096557600080fd5b6010548211156109875760405162461bcd60e51b815260040161067890612205565b600f546109948284611366565b11156109b25760405162461bcd60e51b8152600401610678906124ca565b6109ba610ddd565b6001600160a01b0316336001600160a01b031614610a2557601154610100900460ff166109f95760405162461bcd60e51b815260040161067890612595565b600e54610a069083611372565b341015610a255760405162461bcd60e51b8152600401610678906120d1565b60015b828111610a5e57610a39600b61137e565b610a4c84610a47600b611387565b61138b565b80610a568161269d565b915050610a28565b50505050565b6107fc83838360405180602001604052806000815250610ec9565b60606000610a8c83610d0c565b905060008167ffffffffffffffff811115610ab757634e487b7160e01b600052604160045260246000fd5b604051908082528060200260200182016040528015610ae0578160200160208202803683370190505b50905060005b82811015610b3557610af8858261084b565b828281518110610b1857634e487b7160e01b600052603260045260246000fd5b602090810291909101015280610b2d8161269d565b915050610ae6565b509392505050565b610b45611125565b6001600160a01b0316610b56610ddd565b6001600160a01b031614610b7c5760405162461bcd60e51b8152600401610678906123bc565b600e55565b6000610b8b610807565b8210610ba95760405162461bcd60e51b815260040161067890612549565b60088281548110610bca57634e487b7160e01b600052603260045260246000fd5b90600052602060002001549050919050565b610be4611125565b6001600160a01b0316610bf5610ddd565b6001600160a01b031614610c1b5760405162461bcd60e51b8152600401610678906123bc565b8051610c2e90600c906020840190611a55565b5050565b601154610100900460ff1681565b60115460ff1681565b6000818152600260205260408120546001600160a01b0316806106315760405162461bcd60e51b8152600401610678906122f2565b600c8054610c8b90612662565b80601f0160208091040260200160405190810160405280929190818152602001828054610cb790612662565b8015610d045780601f10610cd957610100808354040283529160200191610d04565b820191906000526020600020905b815481529060010190602001808311610ce757829003601f168201915b505050505081565b60006001600160a01b038216610d345760405162461bcd60e51b8152600401610678906122a8565b506001600160a01b031660009081526003602052604090205490565b610d58611125565b6001600160a01b0316610d69610ddd565b6001600160a01b031614610d8f5760405162461bcd60e51b8152600401610678906123bc565b61090060006113a5565b610da1611125565b6001600160a01b0316610db2610ddd565b6001600160a01b031614610dd85760405162461bcd60e51b8152600401610678906123bc565b601055565b600a546001600160a01b031690565b6060600180546106a390612662565b610e03611125565b6001600160a01b0316826001600160a01b03161415610e345760405162461bcd60e51b815260040161067890612115565b8060056000610e41611125565b6001600160a01b03908116825260208083019390935260409182016000908120918716808252919093529120805460ff191692151592909217909155610e85611125565b6001600160a01b03167f17307eab39ab6107e8899845ad3d59bd9653f200f220920489ca2b5937696c3183604051610ebd9190611f0a565b60405180910390a35050565b610eda610ed4611125565b836111b4565b610ef65760405162461bcd60e51b8152600401610678906124f8565b610a5e848484846113f7565b600d8054610c8b90612662565b6060610f1a82611129565b610f365760405162461bcd60e51b81526004016106789061243a565b6000610f4061142a565b90506000815111610f605760405180602001604052806000815250610f8e565b80610f6a84611439565b600d604051602001610f7e93929190611db3565b6040516020818303038152906040525b9392505050565b610f9d611125565b6001600160a01b0316610fae610ddd565b6001600160a01b031614610fd45760405162461bcd60e51b8152600401610678906123bc565b601180549115156101000261ff0019909216919091179055565b600f5481565b610ffc611125565b6001600160a01b031661100d610ddd565b6001600160a01b0316146110335760405162461bcd60e51b8152600401610678906123bc565b8051610c2e90600d906020840190611a55565b6001600160a01b03918216600090815260056020908152604080832093909416825291909152205460ff1690565b61107c611125565b6001600160a01b031661108d610ddd565b6001600160a01b0316146110b35760405162461bcd60e51b8152600401610678906123bc565b6001600160a01b0381166110d95760405162461bcd60e51b815260040161067890612010565b6110e2816113a5565b50565b60006001600160e01b031982166380ac58cd60e01b148061111657506001600160e01b03198216635b5e139f60e01b145b80610631575061063182611554565b3390565b6000908152600260205260409020546001600160a01b0316151590565b600081815260046020526040902080546001600160a01b0319166001600160a01b038416908117909155819061117b82610c49565b6001600160a01b03167f8c5be1e5ebec7d5bd14f71427d1e84f3dd0314c0f7b2291e5b200ac8c7c3b92560405160405180910390a45050565b60006111bf82611129565b6111db5760405162461bcd60e51b8152600401610678906121b9565b60006111e683610c49565b9050806001600160a01b0316846001600160a01b031614806112215750836001600160a01b031661121684610726565b6001600160a01b0316145b8061123157506112318185611046565b949350505050565b826001600160a01b031661124c82610c49565b6001600160a01b0316146112725760405162461bcd60e51b8152600401610678906123f1565b6001600160a01b0382166112985760405162461bcd60e51b81526004016106789061208d565b6112a383838361156d565b6112ae600082611146565b6001600160a01b03831660009081526003602052604081208054600192906112d790849061261f565b90915550506001600160a01b03821660009081526003602052604081208054600192906113059084906125d4565b909155505060008181526002602052604080822080546001600160a01b0319166001600160a01b0386811691821790925591518493918716917fddf252ad1be2c89b69c2b068fc378daa952ba7f163c4a11628f55a4df523b3ef91a4505050565b6000610f8e82846125d4565b6000610f8e8284612600565b80546001019055565b5490565b610c2e82826040518060200160405280600081525061159b565b600a80546001600160a01b038381166001600160a01b0319831681179093556040519116919082907f8be0079c531659141344cd1fd0a4f28419497f9722a3daafe3b4186f6b6457e090600090a35050565b611402848484611239565b61140e848484846115ce565b610a5e5760405162461bcd60e51b815260040161067890611fbe565b6060600c80546106a390612662565b60608161145e57506040805180820190915260018152600360fc1b6020820152610634565b8160005b811561148857806114728161269d565b91506114819050600a836125ec565b9150611462565b60008167ffffffffffffffff8111156114b157634e487b7160e01b600052604160045260246000fd5b6040519080825280601f01601f1916602001820160405280156114db576020820181803683370190505b5090505b8415611231576114f060018361261f565b91506114fd600a866126b8565b6115089060306125d4565b60f81b81838151811061152b57634e487b7160e01b600052603260045260246000fd5b60200101906001600160f81b031916908160001a90535061154d600a866125ec565b94506114df565b6001600160e01b031981166301ffc9a760e01b14919050565b6115788383836116e9565b60115460ff16156107fc5760405162461bcd60e51b815260040161067890611f28565b6115a58383611772565b6115b260008484846115ce565b6107fc5760405162461bcd60e51b815260040161067890611fbe565b60006115e2846001600160a01b0316611851565b156116de57836001600160a01b031663150b7a026115fe611125565b8786866040518563ffffffff1660e01b81526004016116209493929190611e89565b602060405180830381600087803b15801561163a57600080fd5b505af192505050801561166a575060408051601f3d908101601f1916820190925261166791810190611d0d565b60015b6116c4573d808015611698576040519150601f19603f3d011682016040523d82523d6000602084013e61169d565b606091505b5080516116bc5760405162461bcd60e51b815260040161067890611fbe565b805181602001fd5b6001600160e01b031916630a85bd0160e11b149050611231565b506001949350505050565b6116f48383836107fc565b6001600160a01b0383166117105761170b81611857565b611733565b816001600160a01b0316836001600160a01b03161461173357611733838261189b565b6001600160a01b03821661174f5761174a81611938565b6107fc565b826001600160a01b0316826001600160a01b0316146107fc576107fc8282611a11565b6001600160a01b0382166117985760405162461bcd60e51b81526004016106789061233b565b6117a181611129565b156117be5760405162461bcd60e51b815260040161067890612056565b6117ca6000838361156d565b6001600160a01b03821660009081526003602052604081208054600192906117f39084906125d4565b909155505060008181526002602052604080822080546001600160a01b0319166001600160a01b03861690811790915590518392907fddf252ad1be2c89b69c2b068fc378daa952ba7f163c4a11628f55a4df523b3ef908290a45050565b3b151590565b600880546000838152600960205260408120829055600182018355919091527ff3f7a9fe364faab93b216da50a3214154f22a0a2b415b23a84c8169e8b636ee30155565b600060016118a884610d0c565b6118b2919061261f565b600083815260076020526040902054909150808214611905576001600160a01b03841660009081526006602090815260408083208584528252808320548484528184208190558352600790915290208190555b5060009182526007602090815260408084208490556001600160a01b039094168352600681528383209183525290812055565b60085460009061194a9060019061261f565b6000838152600960205260408120546008805493945090928490811061198057634e487b7160e01b600052603260045260246000fd5b9060005260206000200154905080600883815481106119af57634e487b7160e01b600052603260045260246000fd5b60009182526020808320909101929092558281526009909152604080822084905585825281205560088054806119f557634e487b7160e01b600052603160045260246000fd5b6001900381819060005260206000200160009055905550505050565b6000611a1c83610d0c565b6001600160a01b039093166000908152600660209081526040808320868452825280832085905593825260079052919091209190915550565b828054611a6190612662565b90600052602060002090601f016020900481019282611a835760008555611ac9565b82601f10611a9c57805160ff1916838001178555611ac9565b82800160010185558215611ac9579182015b82811115611ac9578251825591602001919060010190611aae565b50611ad5929150611ad9565b5090565b5b80821115611ad55760008155600101611ada565b600067ffffffffffffffff80841115611b0957611b096126f8565b604051601f8501601f191681016020018281118282101715611b2d57611b2d6126f8565b604052848152915081838501861015611b4557600080fd5b8484602083013760006020868301015250509392505050565b80356001600160a01b038116811461063457600080fd5b8035801515811461063457600080fd5b600060208284031215611b96578081fd5b610f8e82611b5e565b60008060408385031215611bb1578081fd5b611bba83611b5e565b9150611bc860208401611b5e565b90509250929050565b600080600060608486031215611be5578081fd5b611bee84611b5e565b9250611bfc60208501611b5e565b9150604084013590509250925092565b60008060008060808587031215611c21578081fd5b611c2a85611b5e565b9350611c3860208601611b5e565b925060408501359150606085013567ffffffffffffffff811115611c5a578182fd5b8501601f81018713611c6a578182fd5b611c7987823560208401611aee565b91505092959194509250565b60008060408385031215611c97578182fd5b611ca083611b5e565b9150611bc860208401611b75565b60008060408385031215611cc0578182fd5b611cc983611b5e565b946020939093013593505050565b600060208284031215611ce8578081fd5b610f8e82611b75565b600060208284031215611d02578081fd5b8135610f8e8161270e565b600060208284031215611d1e578081fd5b8151610f8e8161270e565b600060208284031215611d3a578081fd5b813567ffffffffffffffff811115611d50578182fd5b8201601f81018413611d60578182fd5b61123184823560208401611aee565b600060208284031215611d80578081fd5b5035919050565b60008151808452611d9f816020860160208601612636565b601f01601f19169290920160200192915050565b600084516020611dc68285838a01612636565b855191840191611dd98184848a01612636565b8554920191839060028104600180831680611df557607f831692505b858310811415611e1357634e487b7160e01b88526022600452602488fd5b808015611e275760018114611e3857611e64565b60ff19851688528388019550611e64565b611e418b6125c8565b895b85811015611e5c5781548a820152908401908801611e43565b505083880195505b50939b9a5050505050505050505050565b6001600160a01b0391909116815260200190565b6001600160a01b0385811682528416602082015260408101839052608060608201819052600090611ebc90830184611d87565b9695505050505050565b6020808252825182820181905260009190848201906040850190845b81811015611efe57835183529284019291840191600101611ee2565b50909695505050505050565b901515815260200190565b600060208252610f8e6020830184611d87565b6020808252602b908201527f4552433732315061757361626c653a20746f6b656e207472616e73666572207760408201526a1a1a5b19481c185d5cd95960aa1b606082015260800190565b6020808252602b908201527f455243373231456e756d657261626c653a206f776e657220696e646578206f7560408201526a74206f6620626f756e647360a81b606082015260800190565b60208082526032908201527f4552433732313a207472616e7366657220746f206e6f6e20455243373231526560408201527131b2b4bb32b91034b6b83632b6b2b73a32b960711b606082015260800190565b60208082526026908201527f4f776e61626c653a206e6577206f776e657220697320746865207a65726f206160408201526564647265737360d01b606082015260800190565b6020808252601c908201527f4552433732313a20746f6b656e20616c7265616479206d696e74656400000000604082015260600190565b60208082526024908201527f4552433732313a207472616e7366657220746f20746865207a65726f206164646040820152637265737360e01b606082015260800190565b60208082526024908201527f4e6f7420656e6f756768206574686572732073656e7420746f206d696e74204e6040820152634654732160e01b606082015260800190565b60208082526019908201527f4552433732313a20617070726f766520746f2063616c6c657200000000000000604082015260600190565b60208082526010908201526f436f6e7472616374207061757365642160801b604082015260600190565b60208082526023908201527f5f746f20616464726573732063616e6e6f74206265206465616420616464726560408201526273732160e81b606082015260800190565b6020808252602c908201527f4552433732313a206f70657261746f7220717565727920666f72206e6f6e657860408201526b34b9ba32b73a103a37b5b2b760a11b606082015260800190565b60208082526026908201527f5f6d696e74416d6f756e742065786365656473206d6178206d61784d696e74416040820152656d6f756e742160d01b606082015260800190565b60208082526038908201527f4552433732313a20617070726f76652063616c6c6572206973206e6f74206f7760408201527f6e6572206e6f7220617070726f76656420666f7220616c6c0000000000000000606082015260800190565b6020808252602a908201527f4552433732313a2062616c616e636520717565727920666f7220746865207a65604082015269726f206164647265737360b01b606082015260800190565b60208082526029908201527f4552433732313a206f776e657220717565727920666f72206e6f6e657869737460408201526832b73a103a37b5b2b760b91b606082015260800190565b6020808252818101527f4552433732313a206d696e7420746f20746865207a65726f2061646472657373604082015260600190565b6020808252602c908201527f4552433732313a20617070726f76656420717565727920666f72206e6f6e657860408201526b34b9ba32b73a103a37b5b2b760a11b606082015260800190565b6020808252818101527f4f776e61626c653a2063616c6c6572206973206e6f7420746865206f776e6572604082015260600190565b60208082526029908201527f4552433732313a207472616e73666572206f6620746f6b656e2074686174206960408201526839903737ba1037bbb760b91b606082015260800190565b6020808252602f908201527f4552433732314d657461646174613a2055524920717565727920666f72206e6f60408201526e3732bc34b9ba32b73a103a37b5b2b760891b606082015260800190565b60208082526021908201527f4552433732313a20617070726f76616c20746f2063757272656e74206f776e656040820152603960f91b606082015260800190565b6020808252601490820152734d6178537570706c7920657863656564696e672160601b604082015260600190565b60208082526031908201527f4552433732313a207472616e736665722063616c6c6572206973206e6f74206f6040820152701ddb995c881b9bdc88185c1c1c9bdd9959607a1b606082015260800190565b6020808252602c908201527f455243373231456e756d657261626c653a20676c6f62616c20696e646578206f60408201526b7574206f6620626f756e647360a01b606082015260800190565b60208082526010908201526f53616c6520697320696e61637469766560801b604082015260600190565b90815260200190565b60009081526020902090565b600082198211156125e7576125e76126cc565b500190565b6000826125fb576125fb6126e2565b500490565b600081600019048311821515161561261a5761261a6126cc565b500290565b600082821015612631576126316126cc565b500390565b60005b83811015612651578181015183820152602001612639565b83811115610a5e5750506000910152565b60028104600182168061267657607f821691505b6020821081141561269757634e487b7160e01b600052602260045260246000fd5b50919050565b60006000198214156126b1576126b16126cc565b5060010190565b6000826126c7576126c76126e2565b500690565b634e487b7160e01b600052601160045260246000fd5b634e487b7160e01b600052601260045260246000fd5b634e487b7160e01b600052604160045260246000fd5b6001600160e01b0319811681146110e257600080fdfea26469706673582212207b9e6c0b2ded96ff6a03c5d168dfb942eebab2d98629963c2b1d5a0d3ae6b9e664736f6c63430008000033",
  "immutableReferences": {},
  "source": "// SPDX-License-Identifier: UNLICENSED\npragma solidity ^0.8.0;\n\nimport \"@openzeppelin/contracts/token/ERC721/extensions/ERC721Enumerable.sol\";\nimport \"@openzeppelin/contracts/access/Ownable.sol\";\nimport \"@openzeppelin/contracts/utils/math/SafeMath.sol\";\nimport \"@openzeppelin/contracts/utils/Counters.sol\";\n\ncontract Project365Space is ERC721Enumerable, Ownable {\n    using Strings for uint256;\n    using SafeMath for uint256;\n    using Counters for Counters.Counter;\n\n    Counters.Counter private tokenIdsCounter;\n\n    string public baseURI;  // Base URI for json files\n    string public baseExtension = \".json\";  // extension for tokenURI files\n    uint256 public cost = 0.1 ether;    // Cost per NFT\n    uint256 public maxSupply = 5110;\n    uint256 public maxMintAmount = 20;  // Maximum number of tokens can be minted in single transaction\n    bool public paused = false;\n    bool public isSaleActive = false;\n\n    constructor(\n        string memory _initBaseURI\n    ) ERC721(\"365 Space Project\", \"SPACE\") {\n        setBaseURI(_initBaseURI);\n    }\n\n    // internal\n    function _baseURI() internal view virtual override returns (string memory) {\n        return baseURI;\n    }\n\n    // public\n    function mint(address _to, uint256 _mintAmount) public payable {\n        uint256 supply = totalSupply();\n        require(!paused, \"Contract paused!\");\n        require(_to != address(0), \"_to address cannot be dead address!\");\n        require(_mintAmount > 0);\n        require(_mintAmount <= maxMintAmount, \"_mintAmount exceeds max maxMintAmount!\");\n        require(supply.add(_mintAmount) <= maxSupply, \"MaxSupply exceeding!\");\n\n        if (msg.sender != owner()) {\n            require(isSaleActive, \"Sale is inactive\");\n            require(msg.value >= cost.mul(_mintAmount), \"Not enough ethers sent to mint NFTs!\");\n        }\n\n        for (uint256 i = 1; i <= _mintAmount; i++) {\n            tokenIdsCounter.increment();\n            _safeMint(_to, tokenIdsCounter.current());\n        }\n    }\n\n    /**\n     * @dev get tokenIds of _account address\n     */\n    function walletOfOwner(address _account)\n        public\n        view\n        returns (uint256[] memory)\n    {\n        uint256 ownerTokenCount = balanceOf(_account);\n        uint256[] memory tokenIds = new uint256[](ownerTokenCount);\n        for (uint256 i; i < ownerTokenCount; i++) {\n            tokenIds[i] = tokenOfOwnerByIndex(_account, i);\n        }\n        return tokenIds;\n    }\n\n    function tokenURI(uint256 tokenId)\n        public\n        view\n        virtual\n        override\n        returns (string memory)\n    {\n        require(\n            _exists(tokenId),\n            \"ERC721Metadata: URI query for nonexistent token\"\n        );\n\n        string memory currentBaseURI = _baseURI();\n\n        return\n            bytes(currentBaseURI).length > 0\n                ? string(\n                    abi.encodePacked(currentBaseURI, tokenId.toString(), baseExtension)\n                )\n                : \"\";\n    }\n\n    function _beforeTokenTransfer(\n        address from,\n        address to,\n        uint256 tokenId\n    ) internal virtual override(ERC721Enumerable) {\n        super._beforeTokenTransfer(from, to, tokenId);\n\n        require(!paused, \"ERC721Pausable: token transfer while paused\");\n    }\n\n    //only owner\n    function setCost(uint256 _newCost) public onlyOwner() {\n        cost = _newCost;\n    }\n\n    function setmaxMintAmount(uint256 _newmaxMintAmount) public onlyOwner() {\n        maxMintAmount = _newmaxMintAmount;\n    }\n\n    function setBaseURI(string memory _newBaseURI) public onlyOwner {\n        baseURI = _newBaseURI;\n    }\n\n    function setBaseExtension(string memory _newBaseExtension) public onlyOwner {\n        baseExtension = _newBaseExtension;\n    }\n\n    function pause(bool _state) public onlyOwner {\n        paused = _state;\n    }\n\n    function setIsSaleActive(bool _state) public onlyOwner {\n        isSaleActive = _state;\n    }\n\n    /**\n     * @dev Withdraw ethers available on contract to the callers address\n     */\n    function withdraw() public payable onlyOwner {\n        require(payable(msg.sender).send(address(this).balance));\n    }\n}",
  "sourcePath": "/Library/WebServer/Documents/Webiqon/Freelancing/andrew_tamburro/nft_minter_app/contracts/Project365Space.sol",
  "compiler": {
    "name": "solc",
    "version": "0.8.0+commit.c7dfd78e.Emscripten.clang"
  },
  "schemaVersion": "3.4.3",
  "updatedAt": "2021-10-20T15:18:52.914Z",
  "devdoc": {
    "kind": "dev",
    "methods": {
      "approve(address,uint256)": {
        "details": "See {IERC721-approve}."
      },
      "balanceOf(address)": {
        "details": "See {IERC721-balanceOf}."
      },
      "getApproved(uint256)": {
        "details": "See {IERC721-getApproved}."
      },
      "isApprovedForAll(address,address)": {
        "details": "See {IERC721-isApprovedForAll}."
      },
      "name()": {
        "details": "See {IERC721Metadata-name}."
      },
      "owner()": {
        "details": "Returns the address of the current owner."
      },
      "ownerOf(uint256)": {
        "details": "See {IERC721-ownerOf}."
      },
      "renounceOwnership()": {
        "details": "Leaves the contract without owner. It will not be possible to call `onlyOwner` functions anymore. Can only be called by the current owner. NOTE: Renouncing ownership will leave the contract without an owner, thereby removing any functionality that is only available to the owner."
      },
      "safeTransferFrom(address,address,uint256)": {
        "details": "See {IERC721-safeTransferFrom}."
      },
      "safeTransferFrom(address,address,uint256,bytes)": {
        "details": "See {IERC721-safeTransferFrom}."
      },
      "setApprovalForAll(address,bool)": {
        "details": "See {IERC721-setApprovalForAll}."
      },
      "supportsInterface(bytes4)": {
        "details": "See {IERC165-supportsInterface}."
      },
      "symbol()": {
        "details": "See {IERC721Metadata-symbol}."
      },
      "tokenByIndex(uint256)": {
        "details": "See {IERC721Enumerable-tokenByIndex}."
      },
      "tokenOfOwnerByIndex(address,uint256)": {
        "details": "See {IERC721Enumerable-tokenOfOwnerByIndex}."
      },
      "tokenURI(uint256)": {
        "details": "See {IERC721Metadata-tokenURI}."
      },
      "totalSupply()": {
        "details": "See {IERC721Enumerable-totalSupply}."
      },
      "transferFrom(address,address,uint256)": {
        "details": "See {IERC721-transferFrom}."
      },
      "transferOwnership(address)": {
        "details": "Transfers ownership of the contract to a new account (`newOwner`). Can only be called by the current owner."
      },
      "walletOfOwner(address)": {
        "details": "get tokenIds of _account address"
      },
      "withdraw()": {
        "details": "Withdraw ethers available on contract to the callers address"
      }
    },
    "version": 1
  },
  "userdoc": {
    "kind": "user",
    "methods": {},
    "version": 1
  }
}