{
  "contractName": "Project365Space",
  "abi": [
    {
      "inputs": [
        {
          "internalType": "string",
          "name": "_initBaseURI",
          "type": "string"
        }
      ],
      "stateMutability": "nonpayable",
      "type": "constructor"
    },
    {
      "anonymous": false,
      "inputs": [
        {
          "indexed": true,
          "internalType": "address",
          "name": "owner",
          "type": "address"
        },
        {
          "indexed": true,
          "internalType": "address",
          "name": "approved",
          "type": "address"
        },
        {
          "indexed": true,
          "internalType": "uint256",
          "name": "tokenId",
          "type": "uint256"
        }
      ],
      "name": "Approval",
      "type": "event"
    },
    {
      "anonymous": false,
      "inputs": [
        {
          "indexed": true,
          "internalType": "address",
          "name": "owner",
          "type": "address"
        },
        {
          "indexed": true,
          "internalType": "address",
          "name": "operator",
          "type": "address"
        },
        {
          "indexed": false,
          "internalType": "bool",
          "name": "approved",
          "type": "bool"
        }
      ],
      "name": "ApprovalForAll",
      "type": "event"
    },
    {
      "anonymous": false,
      "inputs": [
        {
          "indexed": true,
          "internalType": "address",
          "name": "previousOwner",
          "type": "address"
        },
        {
          "indexed": true,
          "internalType": "address",
          "name": "newOwner",
          "type": "address"
        }
      ],
      "name": "OwnershipTransferred",
      "type": "event"
    },
    {
      "anonymous": false,
      "inputs": [
        {
          "indexed": true,
          "internalType": "address",
          "name": "from",
          "type": "address"
        },
        {
          "indexed": true,
          "internalType": "address",
          "name": "to",
          "type": "address"
        },
        {
          "indexed": true,
          "internalType": "uint256",
          "name": "tokenId",
          "type": "uint256"
        }
      ],
      "name": "Transfer",
      "type": "event"
    },
    {
      "inputs": [
        {
          "internalType": "address",
          "name": "to",
          "type": "address"
        },
        {
          "internalType": "uint256",
          "name": "tokenId",
          "type": "uint256"
        }
      ],
      "name": "approve",
      "outputs": [],
      "stateMutability": "nonpayable",
      "type": "function"
    },
    {
      "inputs": [
        {
          "internalType": "address",
          "name": "owner",
          "type": "address"
        }
      ],
      "name": "balanceOf",
      "outputs": [
        {
          "internalType": "uint256",
          "name": "",
          "type": "uint256"
        }
      ],
      "stateMutability": "view",
      "type": "function",
      "constant": true
    },
    {
      "inputs": [],
      "name": "baseExtension",
      "outputs": [
        {
          "internalType": "string",
          "name": "",
          "type": "string"
        }
      ],
      "stateMutability": "view",
      "type": "function",
      "constant": true
    },
    {
      "inputs": [],
      "name": "baseURI",
      "outputs": [
        {
          "internalType": "string",
          "name": "",
          "type": "string"
        }
      ],
      "stateMutability": "view",
      "type": "function",
      "constant": true
    },
    {
      "inputs": [],
      "name": "cost",
      "outputs": [
        {
          "internalType": "uint256",
          "name": "",
          "type": "uint256"
        }
      ],
      "stateMutability": "view",
      "type": "function",
      "constant": true
    },
    {
      "inputs": [
        {
          "internalType": "uint256",
          "name": "tokenId",
          "type": "uint256"
        }
      ],
      "name": "getApproved",
      "outputs": [
        {
          "internalType": "address",
          "name": "",
          "type": "address"
        }
      ],
      "stateMutability": "view",
      "type": "function",
      "constant": true
    },
    {
      "inputs": [
        {
          "internalType": "address",
          "name": "owner",
          "type": "address"
        },
        {
          "internalType": "address",
          "name": "operator",
          "type": "address"
        }
      ],
      "name": "isApprovedForAll",
      "outputs": [
        {
          "internalType": "bool",
          "name": "",
          "type": "bool"
        }
      ],
      "stateMutability": "view",
      "type": "function",
      "constant": true
    },
    {
      "inputs": [],
      "name": "isSaleActive",
      "outputs": [
        {
          "internalType": "bool",
          "name": "",
          "type": "bool"
        }
      ],
      "stateMutability": "view",
      "type": "function",
      "constant": true
    },
    {
      "inputs": [],
      "name": "maxForAccount",
      "outputs": [
        {
          "internalType": "uint256",
          "name": "",
          "type": "uint256"
        }
      ],
      "stateMutability": "view",
      "type": "function",
      "constant": true
    },
    {
      "inputs": [],
      "name": "maxMintAmount",
      "outputs": [
        {
          "internalType": "uint256",
          "name": "",
          "type": "uint256"
        }
      ],
      "stateMutability": "view",
      "type": "function",
      "constant": true
    },
    {
      "inputs": [],
      "name": "maxSupply",
      "outputs": [
        {
          "internalType": "uint256",
          "name": "",
          "type": "uint256"
        }
      ],
      "stateMutability": "view",
      "type": "function",
      "constant": true
    },
    {
      "inputs": [],
      "name": "name",
      "outputs": [
        {
          "internalType": "string",
          "name": "",
          "type": "string"
        }
      ],
      "stateMutability": "view",
      "type": "function",
      "constant": true
    },
    {
      "inputs": [],
      "name": "owner",
      "outputs": [
        {
          "internalType": "address",
          "name": "",
          "type": "address"
        }
      ],
      "stateMutability": "view",
      "type": "function",
      "constant": true
    },
    {
      "inputs": [
        {
          "internalType": "uint256",
          "name": "tokenId",
          "type": "uint256"
        }
      ],
      "name": "ownerOf",
      "outputs": [
        {
          "internalType": "address",
          "name": "",
          "type": "address"
        }
      ],
      "stateMutability": "view",
      "type": "function",
      "constant": true
    },
    {
      "inputs": [],
      "name": "paused",
      "outputs": [
        {
          "internalType": "bool",
          "name": "",
          "type": "bool"
        }
      ],
      "stateMutability": "view",
      "type": "function",
      "constant": true
    },
    {
      "inputs": [],
      "name": "renounceOwnership",
      "outputs": [],
      "stateMutability": "nonpayable",
      "type": "function"
    },
    {
      "inputs": [
        {
          "internalType": "address",
          "name": "from",
          "type": "address"
        },
        {
          "internalType": "address",
          "name": "to",
          "type": "address"
        },
        {
          "internalType": "uint256",
          "name": "tokenId",
          "type": "uint256"
        }
      ],
      "name": "safeTransferFrom",
      "outputs": [],
      "stateMutability": "nonpayable",
      "type": "function"
    },
    {
      "inputs": [
        {
          "internalType": "address",
          "name": "from",
          "type": "address"
        },
        {
          "internalType": "address",
          "name": "to",
          "type": "address"
        },
        {
          "internalType": "uint256",
          "name": "tokenId",
          "type": "uint256"
        },
        {
          "internalType": "bytes",
          "name": "_data",
          "type": "bytes"
        }
      ],
      "name": "safeTransferFrom",
      "outputs": [],
      "stateMutability": "nonpayable",
      "type": "function"
    },
    {
      "inputs": [
        {
          "internalType": "address",
          "name": "operator",
          "type": "address"
        },
        {
          "internalType": "bool",
          "name": "approved",
          "type": "bool"
        }
      ],
      "name": "setApprovalForAll",
      "outputs": [],
      "stateMutability": "nonpayable",
      "type": "function"
    },
    {
      "inputs": [
        {
          "internalType": "bytes4",
          "name": "interfaceId",
          "type": "bytes4"
        }
      ],
      "name": "supportsInterface",
      "outputs": [
        {
          "internalType": "bool",
          "name": "",
          "type": "bool"
        }
      ],
      "stateMutability": "view",
      "type": "function",
      "constant": true
    },
    {
      "inputs": [],
      "name": "symbol",
      "outputs": [
        {
          "internalType": "string",
          "name": "",
          "type": "string"
        }
      ],
      "stateMutability": "view",
      "type": "function",
      "constant": true
    },
    {
      "inputs": [
        {
          "internalType": "uint256",
          "name": "index",
          "type": "uint256"
        }
      ],
      "name": "tokenByIndex",
      "outputs": [
        {
          "internalType": "uint256",
          "name": "",
          "type": "uint256"
        }
      ],
      "stateMutability": "view",
      "type": "function",
      "constant": true
    },
    {
      "inputs": [
        {
          "internalType": "address",
          "name": "owner",
          "type": "address"
        },
        {
          "internalType": "uint256",
          "name": "index",
          "type": "uint256"
        }
      ],
      "name": "tokenOfOwnerByIndex",
      "outputs": [
        {
          "internalType": "uint256",
          "name": "",
          "type": "uint256"
        }
      ],
      "stateMutability": "view",
      "type": "function",
      "constant": true
    },
    {
      "inputs": [],
      "name": "totalSupply",
      "outputs": [
        {
          "internalType": "uint256",
          "name": "",
          "type": "uint256"
        }
      ],
      "stateMutability": "view",
      "type": "function",
      "constant": true
    },
    {
      "inputs": [
        {
          "internalType": "address",
          "name": "from",
          "type": "address"
        },
        {
          "internalType": "address",
          "name": "to",
          "type": "address"
        },
        {
          "internalType": "uint256",
          "name": "tokenId",
          "type": "uint256"
        }
      ],
      "name": "transferFrom",
      "outputs": [],
      "stateMutability": "nonpayable",
      "type": "function"
    },
    {
      "inputs": [
        {
          "internalType": "address",
          "name": "newOwner",
          "type": "address"
        }
      ],
      "name": "transferOwnership",
      "outputs": [],
      "stateMutability": "nonpayable",
      "type": "function"
    },
    {
      "inputs": [
        {
          "internalType": "address",
          "name": "_to",
          "type": "address"
        },
        {
          "internalType": "uint256",
          "name": "_mintAmount",
          "type": "uint256"
        }
      ],
      "name": "mint",
      "outputs": [],
      "stateMutability": "payable",
      "type": "function",
      "payable": true
    },
    {
      "inputs": [
        {
          "internalType": "address",
          "name": "_account",
          "type": "address"
        }
      ],
      "name": "walletOfOwner",
      "outputs": [
        {
          "internalType": "uint256[]",
          "name": "",
          "type": "uint256[]"
        }
      ],
      "stateMutability": "view",
      "type": "function",
      "constant": true
    },
    {
      "inputs": [
        {
          "internalType": "uint256",
          "name": "tokenId",
          "type": "uint256"
        }
      ],
      "name": "tokenURI",
      "outputs": [
        {
          "internalType": "string",
          "name": "",
          "type": "string"
        }
      ],
      "stateMutability": "view",
      "type": "function",
      "constant": true
    },
    {
      "inputs": [
        {
          "internalType": "uint256",
          "name": "_newCost",
          "type": "uint256"
        }
      ],
      "name": "setCost",
      "outputs": [],
      "stateMutability": "nonpayable",
      "type": "function"
    },
    {
      "inputs": [
        {
          "internalType": "uint256",
          "name": "_newmaxMintAmount",
          "type": "uint256"
        }
      ],
      "name": "setmaxMintAmount",
      "outputs": [],
      "stateMutability": "nonpayable",
      "type": "function"
    },
    {
      "inputs": [
        {
          "internalType": "uint256",
          "name": "_newMaxForAccount",
          "type": "uint256"
        }
      ],
      "name": "setmaxForAccount",
      "outputs": [],
      "stateMutability": "nonpayable",
      "type": "function"
    },
    {
      "inputs": [
        {
          "internalType": "string",
          "name": "_newBaseURI",
          "type": "string"
        }
      ],
      "name": "setBaseURI",
      "outputs": [],
      "stateMutability": "nonpayable",
      "type": "function"
    },
    {
      "inputs": [
        {
          "internalType": "string",
          "name": "_newBaseExtension",
          "type": "string"
        }
      ],
      "name": "setBaseExtension",
      "outputs": [],
      "stateMutability": "nonpayable",
      "type": "function"
    },
    {
      "inputs": [
        {
          "internalType": "bool",
          "name": "_state",
          "type": "bool"
        }
      ],
      "name": "pause",
      "outputs": [],
      "stateMutability": "nonpayable",
      "type": "function"
    },
    {
      "inputs": [
        {
          "internalType": "bool",
          "name": "_state",
          "type": "bool"
        }
      ],
      "name": "setIsSaleActive",
      "outputs": [],
      "stateMutability": "nonpayable",
      "type": "function"
    },
    {
      "inputs": [],
      "name": "withdraw",
      "outputs": [],
      "stateMutability": "payable",
      "type": "function",
      "payable": true
    }
  ],
  "bytecode": "0x60c06040526005608081905264173539b7b760d91b60a09081526200002891600d9190620001e8565b5067016345785d8a0000600e556113f6600f55601460108190556011556012805461ffff191690553480156200005d57600080fd5b5060405162002c6f38038062002c6f83398101604081905262000080916200028e565b60408051808201825260118152700ccd8d4814dc1858d948141c9bda9958dd607a1b602080830191825283518085019094526005845264535041434560d81b908401528151919291620000d691600091620001e8565b508051620000ec906001906020840190620001e8565b50505062000109620001036200011b60201b60201c565b6200011f565b620001148162000171565b50620003e5565b3390565b600a80546001600160a01b038381166001600160a01b0319831681179093556040519116919082907f8be0079c531659141344cd1fd0a4f28419497f9722a3daafe3b4186f6b6457e090600090a35050565b6200017b6200011b565b6001600160a01b03166200018e620001d9565b6001600160a01b031614620001c05760405162461bcd60e51b8152600401620001b7906200035d565b60405180910390fd5b8051620001d590600c906020840190620001e8565b5050565b600a546001600160a01b031690565b828054620001f69062000392565b90600052602060002090601f0160209004810192826200021a576000855562000265565b82601f106200023557805160ff191683800117855562000265565b8280016001018555821562000265579182015b828111156200026557825182559160200191906001019062000248565b506200027392915062000277565b5090565b5b8082111562000273576000815560010162000278565b60006020808385031215620002a1578182fd5b82516001600160401b0380821115620002b8578384fd5b818501915085601f830112620002cc578384fd5b815181811115620002e157620002e1620003cf565b604051601f8201601f1916810185018381118282101715620003075762000307620003cf565b60405281815283820185018810156200031e578586fd5b8592505b8183101562000341578383018501518184018601529184019162000322565b818311156200035257858583830101525b979650505050505050565b6020808252818101527f4f776e61626c653a2063616c6c6572206973206e6f7420746865206f776e6572604082015260600190565b600281046001821680620003a757607f821691505b60208210811415620003c957634e487b7160e01b600052602260045260246000fd5b50919050565b634e487b7160e01b600052604160045260246000fd5b61287a80620003f56000396000f3fe60806040526004361061021a5760003560e01c80635c975abb11610123578063a22cb465116100ab578063d2d65ff51161006f578063d2d65ff5146105c2578063d5abeb01146105e2578063da3ef23f146105f7578063e985e9c514610617578063f2fde38b146106375761021a565b8063a22cb4651461052d578063a91b17bc1461054d578063b88d4fde1461056d578063c66828621461058d578063c87b56dd146105a25761021a565b806370a08231116100f257806370a08231146104ae578063715018a6146104ce5780637f00c7a6146104e35780638da5cb5b1461050357806395d89b41146105185761021a565b80635c975abb1461044f5780636352211e14610464578063645ba954146104845780636c0360eb146104995761021a565b80632f745c59116101a6578063438b630011610175578063438b6300146103ad57806344a0d68a146103da5780634f6ccce7146103fa57806355f804b31461041a578063564566a81461043a5761021a565b80632f745c59146103525780633ccfd60b1461037257806340c10f191461037a57806342842e0e1461038d5761021a565b8063095ea7b3116101ed578063095ea7b3146102c657806313faede6146102e657806318160ddd14610308578063239c70ae1461031d57806323b872dd146103325761021a565b806301ffc9a71461021f57806302329a291461025557806306fdde0314610277578063081812fc14610299575b600080fd5b34801561022b57600080fd5b5061023f61023a366004611dc1565b610657565b60405161024c9190611fda565b60405180910390f35b34801561026157600080fd5b50610275610270366004611da7565b610684565b005b34801561028357600080fd5b5061028c6106df565b60405161024c9190611fe5565b3480156102a557600080fd5b506102b96102b4366004611e3f565b610771565b60405161024c9190611f45565b3480156102d257600080fd5b506102756102e1366004611d7e565b6107b4565b3480156102f257600080fd5b506102fb61084c565b60405161024c91906126df565b34801561031457600080fd5b506102fb610852565b34801561032957600080fd5b506102fb610858565b34801561033e57600080fd5b5061027561034d366004611ca1565b61085e565b34801561035e57600080fd5b506102fb61036d366004611d7e565b610896565b6102756108e8565b610275610388366004611d7e565b61094d565b34801561039957600080fd5b506102756103a8366004611ca1565b610aea565b3480156103b957600080fd5b506103cd6103c8366004611c55565b610b05565b60405161024c9190611f96565b3480156103e657600080fd5b506102756103f5366004611e3f565b610bc3565b34801561040657600080fd5b506102fb610415366004611e3f565b610c07565b34801561042657600080fd5b50610275610435366004611df9565b610c62565b34801561044657600080fd5b5061023f610cb8565b34801561045b57600080fd5b5061023f610cc6565b34801561047057600080fd5b506102b961047f366004611e3f565b610ccf565b34801561049057600080fd5b506102fb610d04565b3480156104a557600080fd5b5061028c610d0a565b3480156104ba57600080fd5b506102fb6104c9366004611c55565b610d98565b3480156104da57600080fd5b50610275610ddc565b3480156104ef57600080fd5b506102756104fe366004611e3f565b610e25565b34801561050f57600080fd5b506102b9610e69565b34801561052457600080fd5b5061028c610e78565b34801561053957600080fd5b50610275610548366004611d55565b610e87565b34801561055957600080fd5b50610275610568366004611e3f565b610f55565b34801561057957600080fd5b50610275610588366004611cdc565b610f99565b34801561059957600080fd5b5061028c610fd2565b3480156105ae57600080fd5b5061028c6105bd366004611e3f565b610fdf565b3480156105ce57600080fd5b506102756105dd366004611da7565b611065565b3480156105ee57600080fd5b506102fb6110be565b34801561060357600080fd5b50610275610612366004611df9565b6110c4565b34801561062357600080fd5b5061023f610632366004611c6f565b611116565b34801561064357600080fd5b50610275610652366004611c55565b611144565b60006001600160e01b0319821663780e9d6360e01b148061067c575061067c826111b5565b90505b919050565b61068c6111f5565b6001600160a01b031661069d610e69565b6001600160a01b0316146106cc5760405162461bcd60e51b81526004016106c3906124dc565b60405180910390fd5b6012805460ff1916911515919091179055565b6060600080546106ee90612782565b80601f016020809104026020016040519081016040528092919081815260200182805461071a90612782565b80156107675780601f1061073c57610100808354040283529160200191610767565b820191906000526020600020905b81548152906001019060200180831161074a57829003601f168201915b5050505050905090565b600061077c826111f9565b6107985760405162461bcd60e51b81526004016106c390612490565b506000908152600460205260409020546001600160a01b031690565b60006107bf82610ccf565b9050806001600160a01b0316836001600160a01b031614156107f35760405162461bcd60e51b81526004016106c3906125a9565b806001600160a01b03166108056111f5565b6001600160a01b031614806108215750610821816106326111f5565b61083d5760405162461bcd60e51b81526004016106c39061231b565b6108478383611216565b505050565b600e5481565b60085490565b60105481565b61086f6108696111f5565b82611284565b61088b5760405162461bcd60e51b81526004016106c390612618565b610847838383611309565b60006108a183610d98565b82106108bf5760405162461bcd60e51b81526004016106c390612043565b506001600160a01b03919091166000908152600660209081526040808320938352929052205490565b6108f06111f5565b6001600160a01b0316610901610e69565b6001600160a01b0316146109275760405162461bcd60e51b81526004016106c3906124dc565b60405133904780156108fc02916000818181858888f1935050505061094b57600080fd5b565b6000610957610852565b60125490915060ff161561097d5760405162461bcd60e51b81526004016106c39061221c565b6001600160a01b0383166109a35760405162461bcd60e51b81526004016106c390612246565b600082116109b057600080fd5b6010548211156109d25760405162461bcd60e51b81526004016106c3906122d5565b600f546109df8284611436565b11156109fd5760405162461bcd60e51b81526004016106c3906125ea565b610a05610e69565b6001600160a01b0316336001600160a01b031614610aab57601254610100900460ff16610a445760405162461bcd60e51b81526004016106c3906126b5565b600e54610a519083611442565b341015610a705760405162461bcd60e51b81526004016106c3906121a1565b6000610a7b84610d98565b601154909150610a8b8285611436565b1115610aa95760405162461bcd60e51b81526004016106c390612440565b505b60015b828111610ae457610abf600b61144e565b610ad284610acd600b611457565b61145b565b80610adc816127bd565b915050610aae565b50505050565b61084783838360405180602001604052806000815250610f99565b60606000610b1283610d98565b905060008167ffffffffffffffff811115610b3d57634e487b7160e01b600052604160045260246000fd5b604051908082528060200260200182016040528015610b66578160200160208202803683370190505b50905060005b82811015610bbb57610b7e8582610896565b828281518110610b9e57634e487b7160e01b600052603260045260246000fd5b602090810291909101015280610bb3816127bd565b915050610b6c565b509392505050565b610bcb6111f5565b6001600160a01b0316610bdc610e69565b6001600160a01b031614610c025760405162461bcd60e51b81526004016106c3906124dc565b600e55565b6000610c11610852565b8210610c2f5760405162461bcd60e51b81526004016106c390612669565b60088281548110610c5057634e487b7160e01b600052603260045260246000fd5b90600052602060002001549050919050565b610c6a6111f5565b6001600160a01b0316610c7b610e69565b6001600160a01b031614610ca15760405162461bcd60e51b81526004016106c3906124dc565b8051610cb490600c906020840190611b25565b5050565b601254610100900460ff1681565b60125460ff1681565b6000818152600260205260408120546001600160a01b03168061067c5760405162461bcd60e51b81526004016106c3906123c2565b60115481565b600c8054610d1790612782565b80601f0160208091040260200160405190810160405280929190818152602001828054610d4390612782565b8015610d905780601f10610d6557610100808354040283529160200191610d90565b820191906000526020600020905b815481529060010190602001808311610d7357829003601f168201915b505050505081565b60006001600160a01b038216610dc05760405162461bcd60e51b81526004016106c390612378565b506001600160a01b031660009081526003602052604090205490565b610de46111f5565b6001600160a01b0316610df5610e69565b6001600160a01b031614610e1b5760405162461bcd60e51b81526004016106c3906124dc565b61094b6000611475565b610e2d6111f5565b6001600160a01b0316610e3e610e69565b6001600160a01b031614610e645760405162461bcd60e51b81526004016106c3906124dc565b601055565b600a546001600160a01b031690565b6060600180546106ee90612782565b610e8f6111f5565b6001600160a01b0316826001600160a01b03161415610ec05760405162461bcd60e51b81526004016106c3906121e5565b8060056000610ecd6111f5565b6001600160a01b03908116825260208083019390935260409182016000908120918716808252919093529120805460ff191692151592909217909155610f116111f5565b6001600160a01b03167f17307eab39ab6107e8899845ad3d59bd9653f200f220920489ca2b5937696c3183604051610f499190611fda565b60405180910390a35050565b610f5d6111f5565b6001600160a01b0316610f6e610e69565b6001600160a01b031614610f945760405162461bcd60e51b81526004016106c3906124dc565b601155565b610faa610fa46111f5565b83611284565b610fc65760405162461bcd60e51b81526004016106c390612618565b610ae4848484846114c7565b600d8054610d1790612782565b6060610fea826111f9565b6110065760405162461bcd60e51b81526004016106c39061255a565b60006110106114fa565b90506000815111611030576040518060200160405280600081525061105e565b8061103a84611509565b600d60405160200161104e93929190611e83565b6040516020818303038152906040525b9392505050565b61106d6111f5565b6001600160a01b031661107e610e69565b6001600160a01b0316146110a45760405162461bcd60e51b81526004016106c3906124dc565b601280549115156101000261ff0019909216919091179055565b600f5481565b6110cc6111f5565b6001600160a01b03166110dd610e69565b6001600160a01b0316146111035760405162461bcd60e51b81526004016106c3906124dc565b8051610cb490600d906020840190611b25565b6001600160a01b03918216600090815260056020908152604080832093909416825291909152205460ff1690565b61114c6111f5565b6001600160a01b031661115d610e69565b6001600160a01b0316146111835760405162461bcd60e51b81526004016106c3906124dc565b6001600160a01b0381166111a95760405162461bcd60e51b81526004016106c3906120e0565b6111b281611475565b50565b60006001600160e01b031982166380ac58cd60e01b14806111e657506001600160e01b03198216635b5e139f60e01b145b8061067c575061067c82611624565b3390565b6000908152600260205260409020546001600160a01b0316151590565b600081815260046020526040902080546001600160a01b0319166001600160a01b038416908117909155819061124b82610ccf565b6001600160a01b03167f8c5be1e5ebec7d5bd14f71427d1e84f3dd0314c0f7b2291e5b200ac8c7c3b92560405160405180910390a45050565b600061128f826111f9565b6112ab5760405162461bcd60e51b81526004016106c390612289565b60006112b683610ccf565b9050806001600160a01b0316846001600160a01b031614806112f15750836001600160a01b03166112e684610771565b6001600160a01b0316145b8061130157506113018185611116565b949350505050565b826001600160a01b031661131c82610ccf565b6001600160a01b0316146113425760405162461bcd60e51b81526004016106c390612511565b6001600160a01b0382166113685760405162461bcd60e51b81526004016106c39061215d565b61137383838361163d565b61137e600082611216565b6001600160a01b03831660009081526003602052604081208054600192906113a790849061273f565b90915550506001600160a01b03821660009081526003602052604081208054600192906113d59084906126f4565b909155505060008181526002602052604080822080546001600160a01b0319166001600160a01b0386811691821790925591518493918716917fddf252ad1be2c89b69c2b068fc378daa952ba7f163c4a11628f55a4df523b3ef91a4505050565b600061105e82846126f4565b600061105e8284612720565b80546001019055565b5490565b610cb482826040518060200160405280600081525061166b565b600a80546001600160a01b038381166001600160a01b0319831681179093556040519116919082907f8be0079c531659141344cd1fd0a4f28419497f9722a3daafe3b4186f6b6457e090600090a35050565b6114d2848484611309565b6114de8484848461169e565b610ae45760405162461bcd60e51b81526004016106c39061208e565b6060600c80546106ee90612782565b60608161152e57506040805180820190915260018152600360fc1b602082015261067f565b8160005b81156115585780611542816127bd565b91506115519050600a8361270c565b9150611532565b60008167ffffffffffffffff81111561158157634e487b7160e01b600052604160045260246000fd5b6040519080825280601f01601f1916602001820160405280156115ab576020820181803683370190505b5090505b8415611301576115c060018361273f565b91506115cd600a866127d8565b6115d89060306126f4565b60f81b8183815181106115fb57634e487b7160e01b600052603260045260246000fd5b60200101906001600160f81b031916908160001a90535061161d600a8661270c565b94506115af565b6001600160e01b031981166301ffc9a760e01b14919050565b6116488383836117b9565b60125460ff16156108475760405162461bcd60e51b81526004016106c390611ff8565b6116758383611842565b611682600084848461169e565b6108475760405162461bcd60e51b81526004016106c39061208e565b60006116b2846001600160a01b0316611921565b156117ae57836001600160a01b031663150b7a026116ce6111f5565b8786866040518563ffffffff1660e01b81526004016116f09493929190611f59565b602060405180830381600087803b15801561170a57600080fd5b505af192505050801561173a575060408051601f3d908101601f1916820190925261173791810190611ddd565b60015b611794573d808015611768576040519150601f19603f3d011682016040523d82523d6000602084013e61176d565b606091505b50805161178c5760405162461bcd60e51b81526004016106c39061208e565b805181602001fd5b6001600160e01b031916630a85bd0160e11b149050611301565b506001949350505050565b6117c4838383610847565b6001600160a01b0383166117e0576117db81611927565b611803565b816001600160a01b0316836001600160a01b03161461180357611803838261196b565b6001600160a01b03821661181f5761181a81611a08565b610847565b826001600160a01b0316826001600160a01b031614610847576108478282611ae1565b6001600160a01b0382166118685760405162461bcd60e51b81526004016106c39061240b565b611871816111f9565b1561188e5760405162461bcd60e51b81526004016106c390612126565b61189a6000838361163d565b6001600160a01b03821660009081526003602052604081208054600192906118c39084906126f4565b909155505060008181526002602052604080822080546001600160a01b0319166001600160a01b03861690811790915590518392907fddf252ad1be2c89b69c2b068fc378daa952ba7f163c4a11628f55a4df523b3ef908290a45050565b3b151590565b600880546000838152600960205260408120829055600182018355919091527ff3f7a9fe364faab93b216da50a3214154f22a0a2b415b23a84c8169e8b636ee30155565b6000600161197884610d98565b611982919061273f565b6000838152600760205260409020549091508082146119d5576001600160a01b03841660009081526006602090815260408083208584528252808320548484528184208190558352600790915290208190555b5060009182526007602090815260408084208490556001600160a01b039094168352600681528383209183525290812055565b600854600090611a1a9060019061273f565b60008381526009602052604081205460088054939450909284908110611a5057634e487b7160e01b600052603260045260246000fd5b906000526020600020015490508060088381548110611a7f57634e487b7160e01b600052603260045260246000fd5b6000918252602080832090910192909255828152600990915260408082208490558582528120556008805480611ac557634e487b7160e01b600052603160045260246000fd5b6001900381819060005260206000200160009055905550505050565b6000611aec83610d98565b6001600160a01b039093166000908152600660209081526040808320868452825280832085905593825260079052919091209190915550565b828054611b3190612782565b90600052602060002090601f016020900481019282611b535760008555611b99565b82601f10611b6c57805160ff1916838001178555611b99565b82800160010185558215611b99579182015b82811115611b99578251825591602001919060010190611b7e565b50611ba5929150611ba9565b5090565b5b80821115611ba55760008155600101611baa565b600067ffffffffffffffff80841115611bd957611bd9612818565b604051601f8501601f191681016020018281118282101715611bfd57611bfd612818565b604052848152915081838501861015611c1557600080fd5b8484602083013760006020868301015250509392505050565b80356001600160a01b038116811461067f57600080fd5b8035801515811461067f57600080fd5b600060208284031215611c66578081fd5b61105e82611c2e565b60008060408385031215611c81578081fd5b611c8a83611c2e565b9150611c9860208401611c2e565b90509250929050565b600080600060608486031215611cb5578081fd5b611cbe84611c2e565b9250611ccc60208501611c2e565b9150604084013590509250925092565b60008060008060808587031215611cf1578081fd5b611cfa85611c2e565b9350611d0860208601611c2e565b925060408501359150606085013567ffffffffffffffff811115611d2a578182fd5b8501601f81018713611d3a578182fd5b611d4987823560208401611bbe565b91505092959194509250565b60008060408385031215611d67578182fd5b611d7083611c2e565b9150611c9860208401611c45565b60008060408385031215611d90578182fd5b611d9983611c2e565b946020939093013593505050565b600060208284031215611db8578081fd5b61105e82611c45565b600060208284031215611dd2578081fd5b813561105e8161282e565b600060208284031215611dee578081fd5b815161105e8161282e565b600060208284031215611e0a578081fd5b813567ffffffffffffffff811115611e20578182fd5b8201601f81018413611e30578182fd5b61130184823560208401611bbe565b600060208284031215611e50578081fd5b5035919050565b60008151808452611e6f816020860160208601612756565b601f01601f19169290920160200192915050565b600084516020611e968285838a01612756565b855191840191611ea98184848a01612756565b8554920191839060028104600180831680611ec557607f831692505b858310811415611ee357634e487b7160e01b88526022600452602488fd5b808015611ef75760018114611f0857611f34565b60ff19851688528388019550611f34565b611f118b6126e8565b895b85811015611f2c5781548a820152908401908801611f13565b505083880195505b50939b9a5050505050505050505050565b6001600160a01b0391909116815260200190565b6001600160a01b0385811682528416602082015260408101839052608060608201819052600090611f8c90830184611e57565b9695505050505050565b6020808252825182820181905260009190848201906040850190845b81811015611fce57835183529284019291840191600101611fb2565b50909695505050505050565b901515815260200190565b60006020825261105e6020830184611e57565b6020808252602b908201527f4552433732315061757361626c653a20746f6b656e207472616e73666572207760408201526a1a1a5b19481c185d5cd95960aa1b606082015260800190565b6020808252602b908201527f455243373231456e756d657261626c653a206f776e657220696e646578206f7560408201526a74206f6620626f756e647360a81b606082015260800190565b60208082526032908201527f4552433732313a207472616e7366657220746f206e6f6e20455243373231526560408201527131b2b4bb32b91034b6b83632b6b2b73a32b960711b606082015260800190565b60208082526026908201527f4f776e61626c653a206e6577206f776e657220697320746865207a65726f206160408201526564647265737360d01b606082015260800190565b6020808252601c908201527f4552433732313a20746f6b656e20616c7265616479206d696e74656400000000604082015260600190565b60208082526024908201527f4552433732313a207472616e7366657220746f20746865207a65726f206164646040820152637265737360e01b606082015260800190565b60208082526024908201527f4e6f7420656e6f756768206574686572732073656e7420746f206d696e74204e6040820152634654732160e01b606082015260800190565b60208082526019908201527f4552433732313a20617070726f766520746f2063616c6c657200000000000000604082015260600190565b60208082526010908201526f436f6e7472616374207061757365642160801b604082015260600190565b60208082526023908201527f5f746f20616464726573732063616e6e6f74206265206465616420616464726560408201526273732160e81b606082015260800190565b6020808252602c908201527f4552433732313a206f70657261746f7220717565727920666f72206e6f6e657860408201526b34b9ba32b73a103a37b5b2b760a11b606082015260800190565b60208082526026908201527f5f6d696e74416d6f756e742065786365656473206d6178206d61784d696e74416040820152656d6f756e742160d01b606082015260800190565b60208082526038908201527f4552433732313a20617070726f76652063616c6c6572206973206e6f74206f7760408201527f6e6572206e6f7220617070726f76656420666f7220616c6c0000000000000000606082015260800190565b6020808252602a908201527f4552433732313a2062616c616e636520717565727920666f7220746865207a65604082015269726f206164647265737360b01b606082015260800190565b60208082526029908201527f4552433732313a206f776e657220717565727920666f72206e6f6e657869737460408201526832b73a103a37b5b2b760b91b606082015260800190565b6020808252818101527f4552433732313a206d696e7420746f20746865207a65726f2061646472657373604082015260600190565b60208082526030908201527f4163636f756e742062616c616e6365206578636565647320616c6c6f7765642060408201526f6d696e74696e67207175616e7469747960801b606082015260800190565b6020808252602c908201527f4552433732313a20617070726f76656420717565727920666f72206e6f6e657860408201526b34b9ba32b73a103a37b5b2b760a11b606082015260800190565b6020808252818101527f4f776e61626c653a2063616c6c6572206973206e6f7420746865206f776e6572604082015260600190565b60208082526029908201527f4552433732313a207472616e73666572206f6620746f6b656e2074686174206960408201526839903737ba1037bbb760b91b606082015260800190565b6020808252602f908201527f4552433732314d657461646174613a2055524920717565727920666f72206e6f60408201526e3732bc34b9ba32b73a103a37b5b2b760891b606082015260800190565b60208082526021908201527f4552433732313a20617070726f76616c20746f2063757272656e74206f776e656040820152603960f91b606082015260800190565b6020808252601490820152734d6178537570706c7920657863656564696e672160601b604082015260600190565b60208082526031908201527f4552433732313a207472616e736665722063616c6c6572206973206e6f74206f6040820152701ddb995c881b9bdc88185c1c1c9bdd9959607a1b606082015260800190565b6020808252602c908201527f455243373231456e756d657261626c653a20676c6f62616c20696e646578206f60408201526b7574206f6620626f756e647360a01b606082015260800190565b60208082526010908201526f53616c6520697320696e61637469766560801b604082015260600190565b90815260200190565b60009081526020902090565b60008219821115612707576127076127ec565b500190565b60008261271b5761271b612802565b500490565b600081600019048311821515161561273a5761273a6127ec565b500290565b600082821015612751576127516127ec565b500390565b60005b83811015612771578181015183820152602001612759565b83811115610ae45750506000910152565b60028104600182168061279657607f821691505b602082108114156127b757634e487b7160e01b600052602260045260246000fd5b50919050565b60006000198214156127d1576127d16127ec565b5060010190565b6000826127e7576127e7612802565b500690565b634e487b7160e01b600052601160045260246000fd5b634e487b7160e01b600052601260045260246000fd5b634e487b7160e01b600052604160045260246000fd5b6001600160e01b0319811681146111b257600080fdfea26469706673582212207caaa1ec22540a1c729201a238455a951cd2e8893a9a040de9b61d48aaf976f764736f6c63430008000033",
  "immutableReferences": {},
  "source": "// SPDX-License-Identifier: UNLICENSED\n\npragma solidity ^0.8.0;\n\nimport \"@openzeppelin/contracts/token/ERC721/extensions/ERC721Enumerable.sol\";\nimport \"@openzeppelin/contracts/access/Ownable.sol\";\nimport \"@openzeppelin/contracts/utils/math/SafeMath.sol\";\nimport \"@openzeppelin/contracts/utils/Counters.sol\";\n\ncontract Project365Space is ERC721Enumerable, Ownable {\n    using Strings for uint256;\n    using SafeMath for uint256;\n    using Counters for Counters.Counter;\n\n    Counters.Counter private tokenIdsCounter;\n\n    string public baseURI;  // Base URI for json files\n    string public baseExtension = \".json\";  // extension for tokenURI files\n    uint256 public cost = 0.1 ether;    // Cost per NFT\n    uint256 public maxSupply = 5110;\n    uint256 public maxMintAmount = 20;  // Maximum number of tokens can be minted in single transaction\n    uint256 public maxForAccount = 20;  // Maximum number of tokens an account can mint\n    bool public paused = false;\n    bool public isSaleActive = false;\n\n    constructor(\n        string memory _initBaseURI\n    ) ERC721(\"365 Space Project\", \"SPACE\") {\n        setBaseURI(_initBaseURI);\n    }\n\n    // internal\n    function _baseURI() internal view virtual override returns (string memory) {\n        return baseURI;\n    }\n\n    // public\n    function mint(address _to, uint256 _mintAmount) public payable {\n        uint256 supply = totalSupply();\n        require(!paused, \"Contract paused!\");\n        require(_to != address(0), \"_to address cannot be dead address!\");\n        require(_mintAmount > 0);\n        require(_mintAmount <= maxMintAmount, \"_mintAmount exceeds max maxMintAmount!\");\n        require(supply.add(_mintAmount) <= maxSupply, \"MaxSupply exceeding!\");\n\n        if (msg.sender != owner()) {\n            require(isSaleActive, \"Sale is inactive\");\n            require(msg.value >= cost.mul(_mintAmount), \"Not enough ethers sent to mint NFTs!\");\n\n            uint256 userBalance = balanceOf(_to);\n            require(userBalance.add(_mintAmount) <= maxForAccount, \"Account balance exceeds allowed minting quantity\");\n        }\n\n        for (uint256 i = 1; i <= _mintAmount; i++) {\n            tokenIdsCounter.increment();\n            _safeMint(_to, tokenIdsCounter.current());\n        }\n    }\n\n    /**\n     * @dev get tokenIds of _account address\n     */\n    function walletOfOwner(address _account)\n        public\n        view\n        returns (uint256[] memory)\n    {\n        uint256 ownerTokenCount = balanceOf(_account);\n        uint256[] memory tokenIds = new uint256[](ownerTokenCount);\n        for (uint256 i; i < ownerTokenCount; i++) {\n            tokenIds[i] = tokenOfOwnerByIndex(_account, i);\n        }\n        return tokenIds;\n    }\n\n    function tokenURI(uint256 tokenId)\n        public\n        view\n        virtual\n        override\n        returns (string memory)\n    {\n        require(\n            _exists(tokenId),\n            \"ERC721Metadata: URI query for nonexistent token\"\n        );\n\n        string memory currentBaseURI = _baseURI();\n\n        return\n            bytes(currentBaseURI).length > 0\n                ? string(\n                    abi.encodePacked(currentBaseURI, tokenId.toString(), baseExtension)\n                )\n                : \"\";\n    }\n\n    function _beforeTokenTransfer(\n        address from,\n        address to,\n        uint256 tokenId\n    ) internal virtual override(ERC721Enumerable) {\n        super._beforeTokenTransfer(from, to, tokenId);\n\n        require(!paused, \"ERC721Pausable: token transfer while paused\");\n    }\n\n    //only owner\n    function setCost(uint256 _newCost) public onlyOwner() {\n        cost = _newCost;\n    }\n\n    function setmaxMintAmount(uint256 _newmaxMintAmount) public onlyOwner() {\n        maxMintAmount = _newmaxMintAmount;\n    }\n\n    function setmaxForAccount(uint256 _newMaxForAccount) public onlyOwner() {\n        maxForAccount = _newMaxForAccount;\n    }\n\n    function setBaseURI(string memory _newBaseURI) public onlyOwner {\n        baseURI = _newBaseURI;\n    }\n\n    function setBaseExtension(string memory _newBaseExtension) public onlyOwner {\n        baseExtension = _newBaseExtension;\n    }\n\n    function pause(bool _state) public onlyOwner {\n        paused = _state;\n    }\n\n    function setIsSaleActive(bool _state) public onlyOwner {\n        isSaleActive = _state;\n    }\n\n    /**\n     * @dev Withdraw ethers available on contract to the callers address\n     */\n    function withdraw() public payable onlyOwner {\n        require(payable(msg.sender).send(address(this).balance));\n    }\n}",
  "sourcePath": "/Library/WebServer/Documents/Webiqon/Freelancing/andrew_tamburro/nft_minter_app/contracts/Project365Space.sol",
  "compiler": {
    "name": "solc",
    "version": "0.8.0+commit.c7dfd78e.Emscripten.clang"
  },
  "schemaVersion": "3.4.3",
  "updatedAt": "2021-10-14T08:09:21.148Z",
  "networkType": "ethereum",
  "devdoc": {
    "kind": "dev",
    "methods": {
      "approve(address,uint256)": {
        "details": "See {IERC721-approve}."
      },
      "balanceOf(address)": {
        "details": "See {IERC721-balanceOf}."
      },
      "getApproved(uint256)": {
        "details": "See {IERC721-getApproved}."
      },
      "isApprovedForAll(address,address)": {
        "details": "See {IERC721-isApprovedForAll}."
      },
      "name()": {
        "details": "See {IERC721Metadata-name}."
      },
      "owner()": {
        "details": "Returns the address of the current owner."
      },
      "ownerOf(uint256)": {
        "details": "See {IERC721-ownerOf}."
      },
      "renounceOwnership()": {
        "details": "Leaves the contract without owner. It will not be possible to call `onlyOwner` functions anymore. Can only be called by the current owner. NOTE: Renouncing ownership will leave the contract without an owner, thereby removing any functionality that is only available to the owner."
      },
      "safeTransferFrom(address,address,uint256)": {
        "details": "See {IERC721-safeTransferFrom}."
      },
      "safeTransferFrom(address,address,uint256,bytes)": {
        "details": "See {IERC721-safeTransferFrom}."
      },
      "setApprovalForAll(address,bool)": {
        "details": "See {IERC721-setApprovalForAll}."
      },
      "supportsInterface(bytes4)": {
        "details": "See {IERC165-supportsInterface}."
      },
      "symbol()": {
        "details": "See {IERC721Metadata-symbol}."
      },
      "tokenByIndex(uint256)": {
        "details": "See {IERC721Enumerable-tokenByIndex}."
      },
      "tokenOfOwnerByIndex(address,uint256)": {
        "details": "See {IERC721Enumerable-tokenOfOwnerByIndex}."
      },
      "tokenURI(uint256)": {
        "details": "See {IERC721Metadata-tokenURI}."
      },
      "totalSupply()": {
        "details": "See {IERC721Enumerable-totalSupply}."
      },
      "transferFrom(address,address,uint256)": {
        "details": "See {IERC721-transferFrom}."
      },
      "transferOwnership(address)": {
        "details": "Transfers ownership of the contract to a new account (`newOwner`). Can only be called by the current owner."
      },
      "walletOfOwner(address)": {
        "details": "get tokenIds of _account address"
      },
      "withdraw()": {
        "details": "Withdraw ethers available on contract to the callers address"
      }
    },
    "version": 1
  },
  "userdoc": {
    "kind": "user",
    "methods": {},
    "version": 1
  }
}